:020000040800F2
:1000000000800020F1060008950600089B06000805
:10001000A1060008A7060008AD06000800000000C1
:10002000000000000000000000000000B30600080F
:10003000BF06000800000000CB060008D706000835
:100040003907000839070008390700083907000890
:100050003907000839070008390700083907000880
:100060003907000839070008390700083907000870
:100070003907000839070008390700083907000860
:100080003907000839070008390700083907000850
:100090003907000839070008390700083907000840
:1000A0003907000839070008390700083907000830
:1000B0003907000839070008390700083907000820
:1000C0003907000839070008390700083907000810
:1000D0003907000839070008390700083907000800
:1000E00039070008390700083907000839070008F0
:1000F0003907000800000000390700083907000828
:10010000000000000000000039070008390700085F
:100110003907000839070008390700080000000007
:100120003907000800000000000000000000000087
:0C01300000000000000000005FF808F173
:10013C0010B5054C237833B9044B13B10448AFF315
:10014C0000800123237010BD0C0000200000000073
:10015C00081B000808B5034B1BB103490348AFF358
:10016C00008008BD0000000010000020081B0008E3
:10017C0053B94AB9002908BF00281CBF4FF0FF3102
:10018C004FF0FF3000F072B9ADF1080C6DE904CE00
:10019C0000F006F8DDF804E0DDE9022304B0704756
:1001AC002DE9F047089E0D4604468E46002B4CD197
:1001BC008A42944667D9B2FA82F353B102FA03FC2D
:1001CC00C3F1200201FA03FE20FA02F242EA0E0EFB
:1001DC009C404FEA1C47BEFBF7F11FFA8CF507FB5E
:1001EC0011EE01FB05F0220C42EA0E4290420AD9B4
:1001FC001CEB020201F1FF3E80F01981904240F2AB
:10020C00168102396244121AB2FBF7F007FB102276
:10021C0000FB05F5A4B244EA0244A5420AD91CEB42
:10022C00040400F1FF3280F00481A54240F2018108
:10023C006444023840EA01400021641B1EB1DC40DA
:10024C000023C6E90043BDE8F0878B4208D9002E95
:10025C0000F0EA800021C6E900050846BDE8F087F9
:10026C00B3FA83F1002948D1AB4202D3824200F2A7
:10027C00F880841A65EB030201209646002EE2D02A
:10028C00C6E9004EDFE702B9FFDEB2FA82F3002BBB
:10029C0040F08E80881A0121170C1FFA82FEB0FBE9
:1002AC00F7F507FB1500220C42EA00420EFB05F0A5
:1002BC00904208D91CEB020205F1FF3802D29042A1
:1002CC0000F2CC804546121AB2FBF7F007FB102265
:1002DC000EFB00FEA4B244EA0244A64508D91CEB6E
:1002EC00040400F1FF3202D2A64500F2B48010469D
:1002FC00A4EB0E0440EA0540A0E7C1F120078B40B7
:10030C0022FA07FC4CEA030C25FA07FA4FEA1C49BF
:10031C00BAFBF9F88D4020FA07F309FB18AA1FFA6B
:10032C008CFE2B4300FA01F508FB0EF01C0C44EA82
:10033C000A44A04202FA01F20BD91CEB040408F1A6
:10034C00FF3A80F08680A04240F28380A8F1020838
:10035C006444241A98B2B4FBF9F309FB134403FB6D
:10036C000EFE40EA0444A64508D91CEB040403F134
:10037C00FF306AD2A64568D9023B644443EA084080
:10038C00A0FB0293A4EB0E049C42C8469E4654D399
:10039C0051D0002E67D0B5EB080364EB0E04CB40B4
:1003AC0004FA07F71F43CC40C6E9007400214AE762
:1003BC0002FA03FCC3F12000C1409D4024FA00F076
:1003CC004FEA1C472843B1FBF7F507FB15111FFA41
:1003DC008CFE020C42EA014205FB0EF1914204FA3A
:1003EC0003F408D91CEB020205F1FF382FD291421D
:1003FC002DD9023D6244521AB2FBF7F107FB1122D0
:10040C0080B240EA024001FB0EF2824208D91CEB9A
:10041C00000001F1FF3816D2824214D9023960442F
:10042C00801A41EA05413AE7314630460BE77146FE
:10043C00E9E61046FEE64D45ABD2B9EB020863EB9C
:10044C000C0E0138A5E74146EAE7034696E7454618
:10045C00D1E7D0467DE76444023849E7023D624467
:10046C0031E708460AE73146EDE600BF704700BFAA
:10047C0080B500AF01F0A8FA00F006F800F076F8AD
:10048C0000F04AF8FEE7000080B592B000AF07F12B
:10049C00140334220021184601F004FB3B460022D1
:1004AC001A605A609A60DA601A611A4B1B6823F45E
:1004BC00C053184A43F40063136010237B6101237B
:1004CC00FB6200233B634FF420437B630023BB633D
:1004DC0007F11403184600F08FFB0346002B01D0E4
:1004EC0000F05AF80F233B6000237B600023BB60B5
:1004FC000023FB6000233B613B460021184600F0C3
:10050C00ABFE0346002B01D000F046F800BF483785
:10051C00BD4680BD0070004080B500AF114B124A43
:10052C001A60104B4FF4E1325A600E4B00229A6065
:10053C000C4B0022DA600B4B00221A61094B0C2287
:10054C005A61084B00229A61064B0022DA61054879
:10055C0001F006F90346002B01D000F01DF800BF96
:10056C0080BD00BF280000200038014080B483B05B
:10057C0000AF084BDB69074A43F00203D361054B1C
:10058C00DB6903F002037B607B6800BF0C37BD4660
:10059C0080BC70470038024080B400AF72B600BF18
:1005AC00FEE7000080B485B000AF144B5B6A134AC1
:1005BC0043F000435362114B5B6A03F00043FB6052
:1005CC00FB680E4B1B6A0D4A43F0010313620B4B85
:1005DC001B6A03F00103BB60BB68084B5B6A074AEC
:1005EC0043F080535362054B5B6A03F080537B608E
:1005FC007B6800BF1437BD4680BC70470038024092
:10060C0080B58AB000AF786007F1140300221A603D
:10061C005A609A60DA601A617B681B68174A9342C9
:10062C0027D1174B1B6A164A43F480431362144BB1
:10063C001B6A03F480433B613B69114BDB69104A35
:10064C0043F00203D3610E4BDB6903F00203FB6042
:10065C00FB68C0237B610223BB610023FB61032386
:10066C003B6207237B6207F114031946054800F02F
:10067C0043F900BF2837BD4680BD00BF003801409C
:10068C00003802400004024080B400AFFEE780B4A2
:10069C0000AFFEE780B400AFFEE780B400AFFEE72A
:1006AC0080B400AFFEE780B400AF00BFBD4680BC95
:1006BC00704780B400AF00BFBD4680BC704780B4AB
:1006CC0000AF00BFBD4680BC704780B500AF01F0E5
:1006DC00CDF900BF80BD80B400AF00BFBD4680BC6B
:1006EC0070470000FFF7F7FF0B480C490C4A00233A
:1006FC0002E0D458C4500433C4188C42F9D3094ACC
:10070C00094C002301E013600432A242FBD301F038
:10071C00D1F9FFF7ADFE7047000000200C0000205F
:10072C00541B00080C00002074000020FEE70000A1
:10073C0080B485B000AF78607B6803F00703FB6082
:10074C000C4BDB68BB60BA684FF6FF031340BB6011
:10075C00FB681A02BB68134343F0BF6343F40033D6
:10076C00BB60044ABB68D36000BF1437BD4680BC75
:10077C00704700BF00ED00E080B400AF044BDB68B5
:10078C001B0A03F007031846BD4680BC704700BF28
:10079C0000ED00E080B483B000AF03463960FB711C
:1007AC0097F90730002B0ADB3B68DAB20C4997F952
:1007BC0007301201D2B20B4483F800230AE03B68E5
:1007CC00DAB20849FB7903F00F03043B1201D2B2F1
:1007DC000B441A7600BF0C37BD4680BC704700BF77
:1007EC0000E100E000ED00E080B489B000AFF860FB
:1007FC00B9607A60FB6803F00703FB61FB69C3F126
:10080C000703042B28BF0423BB61FB690433062BAD
:10081C0002D9FB69033B00E000237B614FF0FF3200
:10082C00BB6902FA03F3DA43BB681A407B699A404E
:10083C004FF0FF317B6901FA03F3D9437B680B401E
:10084C00134318462437BD4680BC704780B582B030
:10085C0000AF78607B68013BB3F1807F01D301234B
:10086C000FE00A4A7B68013B53600F214FF0FF30C9
:10087C00FFF790FF054B00229A60044B07221A6089
:10088C00002318460837BD4680BD00BF10E000E0CD
:10089C0080B582B000AF78607868FFF749FF00BF81
:1008AC000837BD4680BD80B586B000AF0346B96041
:1008BC007A60FB7300237B61FFF75EFF78617A68D7
:1008CC00B9687869FFF790FF024697F90F30114627
:1008DC001846FFF75FFF00BF1837BD4680BD80B5D7
:1008EC0082B000AF78607868FFF7B0FF0346184617
:1008FC000837BD4680BD000080B487B000AF78607B
:10090C00396000237B610023FB6000233B6154E1D1
:10091C003B681A6801217B6901FA03F31340FB6001
:10092C00FB68002B00F046813B685B6803F0030317
:10093C00012B05D03B685B6803F00303022B30D11D
:10094C007B689B683B617B695B00032202FA03F3C3
:10095C00DB433A6913403B613B68DA687B695B00B7
:10096C0002FA03F33A6913433B617B683A699A6074
:10097C007B685B683B6101227B6902FA03F3DB4312
:10098C003A6913403B613B685B681B0903F0010249
:10099C007B6902FA03F33A6913433B617B683A695A
:1009AC005A603B685B6803F00303032B17D07B682A
:1009BC00DB683B617B695B00032202FA03F3DB43D8
:1009CC003A6913403B613B689A687B695B0002FAA9
:1009DC0003F33A6913433B617B683A69DA603B681D
:1009EC005B6803F00303022B23D17B69DA087B6875
:1009FC00083253F822303B617B6903F007039B00FC
:100A0C000F2202FA03F3DB433A6913403B613B6864
:100A1C001A697B6903F007039B0002FA03F33A6936
:100A2C0013433B617B69DA087B680832396943F808
:100A3C0022107B681B683B617B695B00032202FA16
:100A4C0003F3DB433A6913403B613B685B6803F09B
:100A5C0003027B695B0002FA03F33A6913433B61BF
:100A6C007B683A691A603B685B6803F44033002B7F
:100A7C0000F0A080584B1B6A574A43F001031362E5
:100A8C00554B1B6A03F00103BB60BB68534A7B697F
:100A9C009B08023352F823303B617B6903F003035C
:100AAC009B000F2202FA03F3DB433A6913403B61CC
:100ABC007B684B4A934219D07B684A4A934213D0C5
:100ACC007B68494A93420DD07B68484A934207D0D1
:100ADC007B68474A934201D1042308E0052306E0D2
:100AEC00032304E0022302E0012300E000237A69DF
:100AFC0002F00302920093403A6913433B61374979
:100B0C007B699B0802333A6941F82320394B9B6877
:100B1C003B61FB68DB433A6913403B613B685B68B4
:100B2C0003F48013002B03D03A69FB6813433B6139
:100B3C00304A3B6993602F4BDB683B61FB68DB43BE
:100B4C003A6913403B613B685B6803F40013002B6C
:100B5C0003D03A69FB6813433B61264A3B69D36077
:100B6C00244B5B683B61FB68DB433A6913403B6198
:100B7C003B685B6803F40033002B03D03A69FB68D5
:100B8C0013433B611B4A3B6953601A4B1B683B6127
:100B9C00FB68DB433A6913403B613B685B6803F4D9
:100BAC008033002B03D03A69FB6813433B61114A35
:100BBC003B6913607B6901337B613B681A687B6915
:100BCC0022FA03F3002B7FF4A3AE00BF00BF1C3747
:100BDC00BD4680BC704700BF003802400000014099
:100BEC00000002400004024000080240000C0240D9
:100BFC00001002400004014080B588B000AF78605E
:100C0C007B68002B01D101231DE3944B9B6803F0FF
:100C1C000C03BB61914B9B6803F480337B617B6855
:100C2C001B6803F00103002B7BD0BB69082B06D09B
:100C3C00BB690C2B0FD17B69B3F5803F0BD1874B74
:100C4C001B6803F40033002B6AD07B685B68002BB5
:100C5C0066D10123F7E27B685B68012B06D17F4BE1
:100C6C001B687E4A43F4803313602DE07B685B681D
:100C7C00002B0CD1794B1B68784A23F4803313601A
:100C8C00764B1B68754A23F4802313601CE07B6849
:100C9C005B68052B0CD1714B1B68704A43F48023A5
:100CAC0013606E4B1B686D4A43F4803313600BE08A
:100CBC006A4B1B68694A23F480331360674B1B68CB
:100CCC00664A23F4802313607B685B68002B13D087
:100CDC0000F0DEFE386108E000F0DAFE02463B6907
:100CEC00D31A642B01D90323ADE25C4B1B6803F4CC
:100CFC000033002BF0D014E000F0CAFE386108E09D
:100D0C0000F0C6FE02463B69D31A642B01D90323BB
:100D1C0099E2524B1B6803F40033002BF0D100E036
:100D2C0000BF7B681B6803F00203002B5AD0BB6921
:100D3C00042B05D0BB690C2B19D17B69002B16D168
:100D4C00464B1B6803F00203002B05D07B68DB6865
:100D5C00012B01D0012376E2404B5B6823F4F8525F
:100D6C007B681B691B023D4913434B603AE07B686F
:100D7C00DB68002B20D03A4B01221A6000F088FE71
:100D8C00386108E000F084FE02463B69D31A022B5E
:100D9C0001D9032357E2314B1B6803F00203002BEC
:100DAC00F0D02E4B5B6823F4F8527B681B691B0256
:100DBC002A4913434B6015E0294B00221A6000F0BE
:100DCC0067FE386108E000F063FE02463B69D31A07
:100DDC00022B01D9032336E2204B1B6803F00203DC
:100DEC00002BF0D17B681B6803F01003002B00F084
:100DFC00B880BB69002B70D1184B1B6803F40073CF
:100E0C00002B05D07B689B69002B01D101231AE2D2
:100E1C007B681A6A114B5B6803F460439A4221D9D0
:100E2C007B681B6A184600F03BFC0346002B01D084
:100E3C00012308E2094B5B6823F460427B681B6A60
:100E4C00064913434B60054B5B6823F07F427B687C
:100E5C00DB691B06014913434B6020E0003802405C
:100E6C0000004742994B5B6823F460427B681B6A25
:100E7C00964913434B60954B5B6823F07F427B682C
:100E8C00DB691B06914913434B607B681B6A184650
:100E9C0000F006FC0346002B01D00123D3E17B6854
:100EAC001B6A5B0B01334FF4004202FA03F3874ACF
:100EBC009268120902F00F0285498A5CD340854A78
:100ECC001360854B1B68184600F096FD0346FB73B8
:100EDC00FB7B002B45D0FB7BB5E17B689B69002B32
:100EEC0029D07E4B01221A6000F0D2FD386108E057
:100EFC0000F0CEFD02463B69D31A022B01D9032325
:100F0C00A1E1724B1B6803F40073002BF0D06F4B04
:100F1C005B6823F460427B681B6A6C4913434B602B
:100F2C006A4B5B6823F07F427B68DB691B06674971
:100F3C0013434B6015E0694B00221A6000F0A8FDCA
:100F4C00386108E000F0A4FD02463B69D31A022B7D
:100F5C0001D9032377E15D4B1B6803F40073002B6D
:100F6C00F0D17B681B6803F00803002B30D07B6842
:100F7C005B69002B16D05A4B01221A6000F088FDD9
:100F8C00386108E000F084FD02463B69D31A022B5D
:100F9C0001D9032357E14D4B5B6B03F00203002B8C
:100FAC00F0D015E04E4B00221A6000F071FD386154
:100FBC0008E000F06DFD02463B69D31A022B01D903
:100FCC00032340E1414B5B6B03F00203002BF0D198
:100FDC007B681B6803F00403002B00F0B580002332
:100FEC00FB773A4B5B6A03F08053002B0DD1374BE8
:100FFC005B6A364A43F080535362344B5B6A03F0AE
:10100C008053BB60BB680123FB77364B1B6803F432
:10101C008073002B18D1334B1B68324A43F4807316
:10102C00136000F035FD386108E000F031FD024638
:10103C003B69D31A642B01D9032304E1294B1B68A8
:10104C0003F48073002BF0D07B689B68012B06D1D6
:10105C001E4B5B6B1D4A43F4807353632DE07B681E
:10106C009B68002B0CD1194B5B6B184A23F48073D3
:10107C005363164B5B6B154A23F4806353631CE07C
:10108C007B689B68052B0CD1104B5B6B0F4A43F4B0
:10109C00806353630D4B5B6B0C4A43F48073536357
:1010AC000BE00A4B5B6B094A23F480735363074BC9
:1010BC005B6B064A23F4806353637B689B68002B4D
:1010CC0024D000F0E5FC386119E000BF0038024084
:1010DC002C1B0008000000200400002020004742C8
:1010EC00800647420070004000F0D2FC02463B698B
:1010FC00D31A41F28832934201D90323A3E0544B13
:10110C005B6B03F40073002BEED014E000F0C0FC1A
:10111C0038610AE000F0BCFC02463B69D31A41F28C
:10112C008832934201D903238DE0494B5B6B03F466
:10113C000073002BEED1FB7F012B05D1444B5B6A76
:10114C00434A23F0805353627B685B6A002B79D04F
:10115C00BB690C2B56D07B685B6A022B3BD13D4B99
:10116C0000221A6000F094FC386108E000F090FC5A
:10117C0002463B69D31A022B01D9032363E0344B9B
:10118C001B6803F00073002BF0D1314B9B6823F4E8
:10119C007D027B68996A7B68DB6A19437B681B6BF1
:1011AC000B432B4913438B602A4B01221A6000F02E
:1011BC006FFC386108E000F06BFC02463B69D31A07
:1011CC00022B01D903233EE0214B1B6803F0007373
:1011DC00002BF0D036E01F4B00221A6000F058FCB8
:1011EC00386108E000F054FC02463B69D31A022B2C
:1011FC0001D9032327E0164B1B6803F00073002B67
:10120C00F0D11FE07B685B6A012B01D101231AE04E
:10121C000F4B9B687B617B6903F480327B689B6A14
:10122C009A420DD17B6903F470127B68DB6A9A4297
:10123C0006D17B6903F440027B681B6B9A4201D098
:10124C00012300E0002318462037BD4680BD00BFB7
:10125C00003802406000474280B584B000AF78602F
:10126C0039607B68002B01D101231AE18F4B1B687D
:10127C0003F001033A689A4219D93B68012B05D156
:10128C008A4B1B68894A43F004031360874B1B6825
:10129C0023F0010285493B6813430B60834B1B68A9
:1012AC0003F001033A689A4201D00123F9E07B680C
:1012BC001B6803F00203002B08D07D4B9B6823F0C6
:1012CC00F0027B689B687A4913438B607B681B68D0
:1012DC0003F00103002B00F08E807B685B68022B0F
:1012EC0007D1734B1B6803F40033002B21D101236E
:1012FC00D7E07B685B68032B07D16D4B1B6803F051
:10130C000073002B15D10123CBE07B685B68012BAC
:10131C0007D1674B1B6803F00203002B09D1012393
:10132C00BFE0634B1B6803F40073002B01D1012356
:10133C00B7E05F4B9B6823F003027B685B685C49FA
:10134C0013438B6000F0A4FBF8607B685B68022B96
:10135C0012D10AE000F09CFB0246FB68D31A41F262
:10136C008832934201D903239BE0514B9B6803F0D5
:10137C000C03082BEED13EE07B685B68032B12D18B
:10138C000AE000F085FB0246FB68D31A41F2883272
:10139C00934201D9032384E0454B9B6803F00C0373
:1013AC000C2BEED127E07B685B68012B1DD10AE08A
:1013BC0000F06EFB0246FB68D31A41F2883293426E
:1013CC0001D903236DE03A4B9B6803F00C03042B0B
:1013DC00EED110E000F05CFB0246FB68D31A41F240
:1013EC008832934201D903235BE0314B9B6803F0B5
:1013FC000C03002BEED12D4B1B6803F001033A6854
:10140C009A4219D23B68012B05D1284B1B68274AFD
:10141C0043F004031360254B1B6823F0010223499E
:10142C003B6813430B60214B1B6803F001033A68C4
:10143C009A4201D0012334E07B681B6803F004035B
:10144C00002B08D01A4B9B6823F4E0627B68DB68A6
:10145C00174913438B607B681B6803F00803002B50
:10146C0009D0134B9B6823F460527B681B69DB002B
:10147C000F4913438B6000F023F802460C4B9B681A
:10148C001B0903F00F030B49CB5C22FA03F30A4A46
:10149C0013600A4B1B68184600F0AEFA0346FB7249
:1014AC00FB7A18461037BD4680BD00BF003C024099
:1014BC00003802402C1B0008000000200400002013
:1014CC002DE9B04F8EB000AF584B9B68FB62FB6AA6
:1014DC0003F00C030C2B0DD00C2B00F29280042B80
:1014EC0002D0082B03D08CE0514B3B6397E0514B5F
:1014FC003B6394E0FB6A9B0C03F00F024E4B9B5C2E
:10150C00BB62FB6A9B0D03F0030301337B62474B09
:10151C009B6803F48033002B21D0BB6A0022BB6193
:10152C00FA61444BD7E906894A4603FB02F20023D1
:10153C00444604FB03F313443E4A4446A4FB020115
:10154C000B4419467B6A00223B617A61D7E904237C
:10155C00FEF70EFE02460B4613467B634EE0BB6A5B
:10156C0000229A46934652465B464FF000004FF0DD
:10157C000001590141EAD261500102460B46B2EB1F
:10158C000A0863EB0B094FF000024FF000034FEA1F
:10159C00891343EA98634FEA8812B2EB080463EBB1
:1015AC0009054FF000024FF00003EB0043EA5473BF
:1015BC00E20014461D4614EB0A033B6045EB0B039B
:1015CC007B604FF000024FF00003D7E9004529463D
:1015DC008B0220462946044643EA945301468A026C
:1015EC00104619467B6A0022BB60FA60D7E90223D9
:1015FC00FEF7BEFD02460B4613467B637B6B3B63DB
:10160C000DE00A4B5B685B0B03F007033B623B6A24
:10161C0001334FF4004202FA03F33B6300BF3B6B10
:10162C0018463837BD46BDE8B08F00BF00380240C1
:10163C000024F40000366E01201B000880B400AFBB
:10164C00024B1B681846BD4680BC7047000000204A
:10165C0080B500AFFFF7F2FF0246054B9B681B0AF3
:10166C0003F007030349CB5C22FA03F3184680BD51
:10167C00003802403C1B000880B500AFFFF7DEFFCE
:10168C000246054B9B68DB0A03F007030349CB5C5E
:10169C0022FA03F3184680BD003802403C1B0008B8
:1016AC0080B487B000AF786000233B61294B9B6806
:1016BC0003F0F003002B2CD1264B5B6A03F0805314
:1016CC00002B05D0244B1B6803F4C0537B6116E040
:1016DC00204B5B6A1F4A43F0805353621D4B5B6A7D
:1016EC0003F08053FB60FB681B4B1B6803F4C05377
:1016FC007B61184B5B6A174A23F0805353627B69FA
:10170C00B3F5C05F05D17B68B3F5404F01D1012320
:10171C003B613B69012B05D1104B1B680F4A43F011
:10172C00040313600D4B1B6823F001020B493B694A
:10173C0013430B60094B1B6803F001033A699A428F
:10174C0001D0012300E0002318461C37BD4680BCA5
:10175C00704700BF0038024000700040003C02405F
:10176C0080B582B000AF78607B68002B01D101237B
:10177C0042E07B6893F84130DBB2002B06D17B68EA
:10178C00002283F840207868FEF73AFF7B68242219
:10179C0083F841207B681B68DA687B681B6822F43D
:1017AC000052DA60786800F02BF87B681B681A69C5
:1017BC007B681B6822F490421A617B681B685A692B
:1017CC007B681B6822F02A025A617B681B68DA6806
:1017DC007B681B6842F40052DA607B6800225A6412
:1017EC007B68202283F841207B68202283F84220EA
:1017FC007B6800225A63002318460837BD4680BD1B
:10180C0080B584B000AF78607B681B681B6923F4DB
:10181C0040517B68DA687B681B680A431A617B68F5
:10182C009A687B681B691A437B685B691A437B68FF
:10183C00DB691343BB607B681B68DB6823F41643CE
:10184C0023F00C037A681268B9680B43D3607B6889
:10185C001B685B6923F440717B689A697B681B6821
:10186C000A435A617B681B68554A934203D1FFF7C0
:10187C0003FFF86002E0FFF7EBFEF8607B68DB69C2
:10188C00B3F5004F4CD1FA6813469B0013449A00F1
:10189C001A447B685B685B00B2FBF3F3494AA2FB1A
:1018AC0003235B091901FA6813469B0013449A0041
:1018BC001A447B685B685B00B2FBF3F2414BA3FB01
:1018CC0002035B09642000FB03F3D31ADB00323301
:1018DC003C4AA2FB03235B095B0003F4F873194435
:1018EC00FA6813469B0013449A001A447B685B68A1
:1018FC005B00B2FBF3F2334BA3FB02035B096420E6
:10190C0000FB03F3D31ADB0032332E4AA2FB032372
:10191C005B0903F007027B681B680A449A604AE083
:10192C00FA6813469B0013449A001A447B685B6860
:10193C009B00B2FBF3F3234AA2FB03235B091901BF
:10194C00FA6813469B0013449A001A447B685B6840
:10195C009B00B2FBF3F21B4BA3FB02035B0964205D
:10196C0000FB03F3D31A1B013233164AA2FB0323E9
:10197C005B0903F0F0031944FA6813469B00134407
:10198C009A001A447B685B689B00B2FBF3F20D4B28
:10199C00A3FB02035B09642000FB03F3D31A1B01B6
:1019AC003233084AA2FB03235B0903F00F027B6866
:1019BC001B680A449A6000BF1037BD4680BD00BF4B
:1019CC00003801401F85EB5180B582B000AF002379
:1019DC00FB710320FEF75CFF0F2000F00DF80346AF
:1019EC00002B02D00123FB7101E0FEF7DBFDFB793C
:1019FC0018460837BD4680BD80B584B000AF78600E
:101A0C000023FB73164B1B68002B22D0154B1A6856
:101A1C00134B1B684FF47A71B1FBF3F3B2FBF3F386
:101A2C001846FEF75CFF0346002B0FD17B680F2B8B
:101A3C0009D8002279684FF0FF30FEF734FF0A4ACC
:101A4C007B68136007E00123FB7304E00123FB7345
:101A5C0001E00123FB73FB7B18461037BD4680BDAC
:101A6C0008000020000000200400002080B400AF1B
:101A7C00054B1A68054B1B681344034A136000BFDF
:101A8C00BD4680BC704700BF7000002008000020DD
:101A9C0080B400AF024B1B681846BD4680BC704733
:101AAC007000002003460244934200D1704703F8B3
:101ABC00011BF9E770B500260C4D0D4C641BA410EE
:101ACC00A64209D100F01AF800260A4D0A4C641BF4
:101ADC00A410A64205D170BD55F8043B98470136B9
:101AEC00EEE755F8043B98470136F2E74C1B00082B
:101AFC004C1B00084C1B0008501B0008F8B500BF1D
:101B0C00F8BC08BC9E467047F8B500BFF8BC08BCD2
:041B1C009E4670472A
:101B2000030406080C10182030000000000000001C
:101B3000000000000102030406070809000000007D
:041B40000102030497
:081B440068E6FF7F01000000CC
:041B4C00610100082B
:041B50003D0100084B
:0C1B540068FF1F001000000001000000EE
:04000005080006F1F8
:00000001FF
